:020000040800F2
:1000000080A300208D0A01081F4B0208790A01080D
:10001000790A0108790A0108790A0108000000003C
:10002000000000000000000000000000A10B01081B
:10003000790A010800000000490B0108790A01084B
:100040002D0D01082D0D01082D0D01082D0D0108A4
:100050002D0D01082D0D01082D0D01082D0D010894
:100060002D0D01082D0D01082D0D01082D0D010884
:100070002D0D01082D0D01082D0D01082D0D010874
:100080002D0D01082D0D01082D0D01082D0D010864
:100090002D0D01082D0D01082D0D01082D0D010854
:1000A0002D0D01082D0D01082D0D01082D0D010844
:1000B0002D0D01082D0D01082D0D01082D0D010834
:1000C0002D0D01082D0D01082D0D01082D0D010824
:1000D0002D0D01082D0D01082D0D01082D0D010814
:1000E0002D0D01082D0D01082D0D01082D0D010804
:1000F0002D0D01082D0D01082D0D01082D0D0108F4
:100100002D0D01082D0D01082D0D01082D0D0108E3
:100110002D0D01082D0D01082D0D01082D0D0108D3
:100120002D0D01082D0D01082D0D01082D0D0108C3
:080130002D0D01082D0D010841
:1001380081F0004102E000BF83F0004330B54FEA90
:1001480041044FEA430594EA050F08BF90EA020FFD
:100158001FBF54EA000C55EA020C7FEA645C7FEA90
:10016800655C00F0E2804FEA5454D4EB5555B8BFB3
:100178006D420CDD2C4480EA020281EA030382EA24
:10018800000083EA010180EA020281EA0303362DB6
:1001980088BF30BD11F0004F4FEA01314FF4801C89
:1001A8004CEA113102D0404261EB410113F0004F9B
:1001B8004FEA03334CEA133302D0524263EB430352
:1001C80094EA050F00F0A780A4F10104D5F1200EF0
:1001D8000DDB02FA0EFC22FA05F2801841F100014B
:1001E80003FA0EF2801843FA05F359410EE0A5F11F
:1001F80020050EF1200E012A03FA0EFC28BF4CF050
:10020800020C43FA05F3C01851EBE37101F0004505
:1002180007D54FF0000EDCF1000C7EEB00006EEB12
:100228000101B1F5801F1BD3B1F5001F0CD349089C
:100238005FEA30004FEA3C0C04F101044FEA4452F3
:1002480012F5800F80F09A80BCF1004F08BF5FEA7A
:10025800500C50F1000041EB045141EA050130BD5A
:100268005FEA4C0C404141EB0101013C28BFB1F56C
:10027800801FE9D291F0000F04BF01460020B1FAB7
:1002880081F308BF2033A3F10B03B3F120020CDA8A
:100298000C3208DD02F1140CC2F10C0201FA0CF068
:1002A80021FA02F10CE002F11402D8BFC2F1200CCD
:1002B80001FA02F120FA0CFCDCBF41EA0C01904083
:1002C800E41AA2BF01EB0451294330BD6FEA0404CC
:1002D8001F3C1CDA0C340EDC04F11404C4F12002B7
:1002E80020FA04F001FA02F340EA030021FA04F3C9
:1002F80045EA030130BDC4F10C04C4F1200220FA20
:1003080002F001FA04F340EA0300294630BD21FA5D
:1003180004F0294630BD94F0000F83F4801306BF23
:1003280081F480110134013D4EE77FEA645C18BF17
:100338007FEA655C29D094EA050F08BF90EA020FAE
:1003480005D054EA000C04BF1946104630BD91EAA6
:10035800030F1EBF0021002030BD5FEA545C05D1A9
:100368004000494128BF41F0004130BD14F58004E8
:100378003CBF01F5801130BD01F0004545F0FE415C
:1003880041F470014FF0000030BD7FEA645C1ABF91
:10039800194610467FEA655C1CBF0B46024650EAC8
:1003A800013406BF52EA033591EA030F41F40021F4
:1003B80030BD00BF90F0000F04BF0021704730B57A
:1003C8004FF4806404F132044FF000054FF000014F
:1003D80050E700BF90F0000F04BF0021704730B510
:1003E8004FF4806404F1320410F0004548BF4042E5
:1003F8004FF000013EE700BF42004FEAE2014FEA3A
:1004080031014FEA02701FBF12F07F4393F07F4F14
:1004180081F06051704732F07F4208BF704793F017
:100428007F4F04BF41F40021704730B54FF460742A
:1004380001F0004521F000411CE700BF50EA01022D
:1004480008BF704730B54FF000050AE050EA0102D6
:1004580008BF704730B511F0004502D5404261EB46
:1004680041014FF4806404F132045FEA915C3FF487
:10047800D8AE4FF003025FEADC0C18BF03325FEA24
:10048800DC0C18BF033202EBDC02C2F1200300FAD5
:1004980003FC20FA02F001FA03FE40EA0E0021FAFA
:1004A80002F11444BDE600BF70B54FF0FF0C4CF4E8
:1004B800E06C1CEA11541DBF1CEA135594EA0C0F9A
:1004C80095EA0C0F00F0DEF82C4481EA030621EAD5
:1004D8004C5123EA4C5350EA013518BF52EA033510
:1004E80041F4801143F4801338D0A0FB02CE4FF0C2
:1004F8000005E1FB02E506F00042E0FB03E54FF0F2
:100508000006E1FB03569CF0000F18BF4EF0010EE9
:10051800A4F1FF04B6F5007F64F5407404D25FEAE5
:100528004E0E6D4146EB060642EAC62141EA555198
:100538004FEAC52040EA5E504FEACE2EB4F1FD0CDA
:1005480088BFBCF5E06F1ED8BEF1004F08BF5FEA58
:10055800500E50F1000041EB045170BD06F000460A
:1005680046EA010140EA020081EA0301B4EB5C04B7
:10057800C2BFD4EB0C0541EA045170BD41F48011AF
:100588004FF0000E013C00F3AB8014F1360FDEBFD4
:10059800002001F0004170BDC4F10004203C35DAB0
:1005A8000C341BDC04F11404C4F1200500FA05F333
:1005B80020FA04F001FA05F240EA020001F00042D4
:1005C80021F0004110EBD37021FA04F642EB06014A
:1005D8005EEA430E08BF20EAD37070BDC4F10C0474
:1005E800C4F1200500FA04F320FA05F001FA04F238
:1005F80040EA020001F0004110EBD37041F1000124
:100608005EEA430E08BF20EAD37070BDC4F120052E
:1006180000FA05F24EEA020E20FA04F301FA05F296
:1006280043EA020321FA04F001F0004121FA04F23E
:1006380020EA020000EBD3705EEA430E08BF20EA0E
:10064800D37070BD94F0000F0FD101F00046400048
:1006580041EB010111F4801F08BF013CF7D041EACA
:10066800060195F0000F18BF704703F000465200CE
:1006780043EB030313F4801F08BF013DF7D043EA9F
:100688000603704794EA0C0F0CEA135518BF95EA55
:100698000C0F0CD050EA410618BF52EA4306D1D1DC
:1006A80081EA030101F000414FF0000070BD50EAFB
:1006B800410606BF1046194652EA430619D094EA85
:1006C8000C0F02D150EA013613D195EA0C0F05D16F
:1006D80052EA03361CBF104619460AD181EA0301C3
:1006E80001F0004141F0FE4141F470014FF000007B
:1006F80070BD41F0FE4141F4780170BD70B54FF016
:10070800FF0C4CF4E06C1CEA11541DBF1CEA135595
:1007180094EA0C0F95EA0C0F00F0A7F8A4EB050477
:1007280081EA030E52EA03354FEA013100F088806E
:100738004FEA03334FF0805545EA131343EA126337
:100748004FEA022245EA111545EA10654FEA0026EC
:100758000EF000419D4208BF964244F1FD0404F5A5
:10076800407402D25B084FEA3202B61A65EB030501
:100778005B084FEA32024FF480104FF4002CB6EBBE
:10078800020E75EB030E22BFB61A754640EA0C003E
:100798005B084FEA3202B6EB020E75EB030E22BF7E
:1007A800B61A754640EA5C005B084FEA3202B6EBBF
:1007B800020E75EB030E22BFB61A754640EA9C007E
:1007C8005B084FEA3202B6EB020E75EB030E22BF4E
:1007D800B61A754640EADC0055EA060E18D04FEA0C
:1007E800051545EA16754FEA06164FEAC30343EAAC
:1007F80052734FEAC2025FEA1C1CC0D111F4801F79
:100808000BD141EA00014FF000004FF0004CB6E771
:1008180011F4801F04BF01430020B4F1FD0C88BF10
:10082800BCF5E06F3FF6AFAEB5EB030C04BFB6EB1B
:10083800020C5FEA500C50F1000041EB045170BD0E
:100848000EF0004E4EEA113114EB5C04C2BFD4EB3B
:100858000C0541EA045170BD41F480114FF0000EBF
:10086800013C90E645EA060E8DE60CEA135594EA3B
:100878000C0F08BF95EA0C0F3FF43BAF94EA0C0F3E
:100888000AD150EA01347FF434AF95EA0C0F7FF4B3
:1008980025AF104619462CE795EA0C0F06D152EA07
:1008A80003353FF4FDAE1046194622E750EA4106EB
:1008B80018BF52EA43067FF4C5AE50EA41047FF4FC
:1008C8000DAF52EA43057FF4EBAE12E74FF0FF3C61
:1008D80006E000BF4FF0010C02E000BF4FF0010C32
:1008E8004DF804CD4FEA410C7FEA6C5C4FEA430CAB
:1008F80018BF7FEA6C5C1BD001B050EA410C0CBFFA
:1009080052EA430C91EA030F02BF90EA020F00205B
:10091800704710F1000F91EA030F58BF994208BFC2
:1009280090422CBFD8176FEAE37040F0010070477F
:100938004FEA410C7FEA6C5C02D150EA013C07D1D6
:100948004FEA430C7FEA6C5CD6D152EA033CD3D021
:100958005DF8040B704700BF8446104662468C461B
:100968001946634600E000BF01B5FFF7B7FF00284E
:1009780048BF10F1000F01BD4DF808EDFFF7F4FF77
:100988000CBF012000205DF808FB00BF4DF808ED02
:10099800FFF7EAFF34BF012000205DF808FB00BF25
:1009A8004DF808EDFFF7E0FF94BF012000205DF847
:1009B80008FB00BF4DF808EDFFF7CEFF94BF0120FC
:1009C80000205DF808FB00BF4DF808EDFFF7C4FFF5
:1009D80034BF012000205DF808FB00BF4FEA410248
:1009E80012F5001215D211D56FF47873B3EB625279
:1009F80012D94FEAC12343F0004343EA505311F0A0
:100A0800004F23FA02F018BF404270474FF0000031
:100A1800704750EA013005D111F0004008BF6FF06F
:100A2800004070474FF00000704700BF4A0011D2E5
:100A380012F5001211D20DD56FF47873B3EB625230
:100A48000ED44FEAC12343F0004343EA505323FA3C
:100A580002F070474FF00000704750EA013002D1B1
:100A68004FF0FF3070474FF0000070474FEA4102E7
:100A7800B2F1E04324BFB3F5001CDCF1FE5C0DD9F4
:100A880001F0004C4FEAC0024CEA5070B2F1004F3E
:100A980040EB830008BF20F00100704711F0804F41
:100AA80021D113F13872BCBF01F00040704741F406
:100AB80080114FEA5252C2F11802C2F1200C10FA0A
:100AC8000CF320FA02F018BF40F001004FEAC123EE
:100AD8004FEAD32303FA0CFC40EA0C0023FA02F392
:100AE8004FEA4303CCE77FEA625307D150EA013368
:100AF8001EBF4FF0FE4040F44000704701F0004038
:100B080040F0FE4040F40000704700BF80F0004015
:100B180002E000BF81F0004142001FBF5FEA4103CD
:100B280092EA030F7FEA226C7FEA236C6AD04FEACD
:100B38001262D2EB1363C1BFD21841404840414012
:100B4800B8BF5B42192B88BF704710F0004F40F4C4
:100B5800000020F07F4018BF404211F0004F41F4E0
:100B6800000121F07F4118BF494292EA030F3FD0AC
:100B7800A2F1010241FA03FC10EB0C00C3F12003BF
:100B880001FA03F100F0004302D5494260EB40004E
:100B9800B0F5000F13D3B0F1807F06D340084FEAB9
:100BA800310102F10102FE2A51D2B1F1004F40EBAE
:100BB800C25008BF20F0010040EA03007047490016
:100BC80040EB0000013A28BFB0F5000FEDD2B0FAB3
:100BD80080FCACF1080CB2EB0C0200FA0CF0AABFD6
:100BE80000EBC25052421843BCBFD0401843704774
:100BF80092F0000F81F4000106BF80F4000001327A
:100C0800013BB5E74FEA41037FEA226C18BF7FEA50
:100C1800236C21D092EA030F04D092F0000F08BF92
:100C28000846704790EA010F1CBF0020704712F079
:100C38007F4F04D1400028BF40F00040704712F1B8
:100C480000723CBF00F50000704700F0004343F01D
:100C5800FE4040F4000070477FEA226216BF084653
:100C68007FEA23630146420206BF5FEA412390EA16
:100C7800010F40F4800070474FF0000304E000BF0C
:100C880010F0004348BF40425FEA000C08BF7047BD
:100C980043F0964301464FF000001CE050EA010281
:100CA80008BF70474FF000030AE000BF50EA010296
:100CB80008BF704711F0004302D5404261EB410183
:100CC8005FEA010C02BF84460146002043F0B643A8
:100CD80008BFA3F18053A3F50003BCFA8CF2083ACD
:100CE800A3EBC25310DB01FA02FC634400FA02FCD6
:100CF800C2F12002BCF1004F20FA02F243EB0200DD
:100D080008BF20F00100704702F1200201FA02FC3E
:100D1800C2F1200250EA4C0021FA02F243EB020031
:100D280008BF20EADC7070474FF0FF0C1CEAD05275
:100D38001EBF1CEAD15392EA0C0F93EA0C0F6FD036
:100D48001A4480EA010C400218BF5FEA41211ED014
:100D58004FF0006343EA501043EA5111A0FB013100
:100D68000CF00040B1F5000F3EBF490041EAD371D5
:100D78005B0040EA010062F17F02FD2A1DD8B3F151
:100D8800004F40EBC25008BF20F00100704790F0C0
:100D9800000F0CF0004C08BF49024CEA502040EA12
:100DA80051207F3AC2BFD2F1FF0340EAC2507047D8
:100DB80040F400004FF00003013A5DDC12F1190F16
:100DC800DCBF00F000407047C2F10002410021FA88
:100DD80002F1C2F1200200FA02FC5FEA310040F1A0
:100DE800000053EA4C0308BF20EADC70704792F019
:100DF800000F00F0004C02BF400010F4000F013A51
:100E0800F9D040EA0C0093F0000F01F0004C02BF4B
:100E1800490011F4000F013BF9D041EA0C018FE7BA
:100E28000CEAD15392EA0C0F18BF93EA0C0F0AD0C0
:100E380030F0004C18BF31F0004CD8D180EA0100E6
:100E480000F00040704790F0000F17BF90F0004F7F
:100E5800084691F0000F91F0004F14D092EA0C0F61
:100E680001D142020FD193EA0C0F03D14B0218BFF4
:100E7800084608D180EA010000F0004040F0FE403A
:100E880040F40000704740F0FE4040F440007047D6
:100E98004FF0FF0C1CEAD0521EBF1CEAD15392EA55
:100EA8000C0F93EA0C0F69D0A2EB030280EA010C45
:100EB80049024FEA402037D04FF0805343EA1111DE
:100EC80043EA10130CF000408B4238BF5B0042F13C
:100ED8007D024FF4000C8B4224BF5B1A40EA0C00E1
:100EE800B3EB510F24BFA3EB510340EA5C00B3EB13
:100EF800910F24BFA3EB910340EA9C00B3EBD10F01
:100F080024BFA3EBD10340EADC001B0118BF5FEA52
:100F18001C1CE0D1FD2A3FF650AF8B4240EBC2507B
:100F280008BF20F0010070470CF0004C4CEA50203C
:100F38007F32C2BFD2F1FF0340EAC250704740F48B
:100F480000004FF00003013A37E792F0000F00F07D
:100F5800004C02BF400010F4000F013AF9D040EAFB
:100F68000C0093F0000F01F0004C02BF490011F48F
:100F7800000F013BF9D041EA0C0195E70CEAD15387
:100F880092EA0C0F08D142027FF47DAF93EA0C0F6E
:100F98007FF470AF084676E793EA0C0F04D14B0252
:100FA8003FF44CAF08466EE730F0004C18BF31F004
:100FB800004CCAD130F000427FF45CAF31F00043FE
:100FC8007FF43CAF5FE700BF4FF0FF3C06E000BF97
:100FD8004FF0010C02E000BF4FF0010C4DF804CDBA
:100FE8004FEA40024FEA41037FEA226C18BF7FEACA
:100FF800236C11D001B052EA530C18BF90EA010FCC
:1010080058BFB2EB030088BFC81738BF6FEAE1705A
:1010180018BF40F0010070477FEA226C02D15FEAF6
:10102800402C05D17FEA236CE4D15FEA412CE1D062
:101038005DF8040B704700BF844608466146FFE729
:101048000FB5FFF7C9FF002848BF10F1000F0FBD0B
:101058004DF808EDFFF7F4FF0CBF012000205DF804
:1010680008FB00BF4DF808EDFFF7EAFF34BF012089
:1010780000205DF808FB00BF4DF808EDFFF7E0FF22
:1010880094BF012000205DF808FB00BF4DF808ED73
:10109800FFF7D2FF94BF012000205DF808FB00BFD6
:1010A8004DF808EDFFF7C8FF34BF012000205DF8B8
:1010B80008FB00BF4FEA4002B2F1FE4F0FD34FF0DA
:1010C8009E03B3EB12620DD94FEA002343F00043AD
:1010D80010F0004F23FA02F018BF404270474FF05B
:1010E8000000704712F1610F01D1420205D110F0E2
:1010F800004008BF6FF0004070474FF00000704795
:101108007BB972B90029BEBF00204FF0004106E04C
:1011180008BF00281CBF6FF000414FF0FF3000F0FF
:1011280007BAADF1080C6DE904CE002909DB002BE4
:101138001ADB00F095F8DDF804E0DDE9022304B0DD
:101148007047404261EB4101002B1BDB00F088F83F
:10115800DDF804E0DDE9022304B0404261EB41011F
:10116800524263EB43037047524263EB430300F080
:1011780077F8DDF804E0DDE9022304B0404261EBD2
:1011880041017047524263EB430300F069F8DDF810
:1011980004E0DDE9022304B0524263EB43037047E5
:1011A80053B94AB9002908BF00281CBF4FF0FF31C6
:1011B8004FF0FF3000F0BCB9ADF1080C6DE904CE7A
:1011C80000F04EF8DDF804E0DDE9022304B07047D2
:1011D800430803F05533C01A830803F0333300F093
:1011E8003330184400EB101000F00F3000EB0020F3
:1011F80000EB0040000E704710B500210446FFF7D1
:1012080031FF20B92046BDE8104000F009B804F1CC
:10121800004000F005F8404261EB410110BD00BFFD
:10122800D0B5FFF7E9F80C4B002206460F46FFF74A
:101238003BF9FFF7FBFB0446FFF7BCF8074B00221E
:10124800FFF732F902460B4630463946FEF774FF7F
:10125800FFF7ECFB2146D0BD0000F03D0000F04157
:101268002DE9F047089E0D4604468846002B4DD1CF
:101278008A42944668D9B2FA82F252B101FA02F36C
:10128800C2F1200120FA01F10CFA02FC41EA03083C
:1012980094404FEA1C45210CB8FBF5FE1FFA8CF769
:1012A80005FB1E8341EA03430EFB07F199420BD964
:1012B8001CEB03030EF1FF3080F01E81994240F2CF
:1012C8001B81AEF1020E63445B1AA4B2B3FBF5F0C6
:1012D80005FB103344EA034400FB07F7A7420AD989
:1012E8001CEB040400F1FF3380F00881A74240F2B0
:1012F800058164440238E41B40EA0E4000211EB117
:10130800D4400023C6E90043BDE8F0878B4208D9E2
:10131800002E00F0EE800021C6E900050846BDE871
:10132800F087B3FA83F100294AD1AB4202D3824253
:1013380000F2F980841A65EB030301209846002E19
:10134800E2D0C6E90048DFE702B9FFDEB2FA82F26E
:10135800002A40F09180A1EB0C054FEA1C471FFAC8
:101368008CFE0121B5FBF7F307FB1350250C45EA6A
:1013780000450EFB03F0A84208D91CEB050503F154
:10138800FF3802D2A84200F2CB8043462D1AA4B2FD
:10139800B5FBF7F007FB105544EA05440EFB00FEC9
:1013A800A64508D91CEB040400F1FF3502D2A64576
:1013B80000F2BB802846A4EB0E0440EA03409EE7F7
:1013C800C1F120078B4022FA07FC4CEA030C20FAF3
:1013D80007F405FA01F31C43FD404FEA1C4900FAE3
:1013E80001F3B5FBF9F8200C1FFA8CFE09FB185520
:1013F80040EA054508FB0EF0A84202FA01F20BD9B3
:101408001CEB050508F1FF3A80F08880A84240F2FD
:101418008580A8F1020865442D1AA4B2B5FBF9F03D
:1014280009FB105544EA054500FB0EFEAE4508D9F8
:101438001CEB050500F1FF346CD2AE456AD90238C1
:10144800654440EA0840A0FB0294A5EB0E05A542BE
:10145800C846A64656D353D05EB1B3EB080265EB37
:101468000E0505FA07F722FA01F3CD401F43C6E936
:1014780000750021BDE8F087C2F1200320FA03F1CE
:101488000CFA02FC25FA03F395400D434FEA1C477A
:101498001FFA8CFEB3FBF7F107FB11302B0C43EA64
:1014A800004301FB0EF0984204FA02F408D91CEB41
:1014B800030301F1FF382FD298422DD90239634432
:1014C8001B1AADB2B3FBF7F007FB103345EA03452F
:1014D80000FB0EF3AB4208D91CEB050500F1FF3801
:1014E80016D2AB4214D902386544ED1A40EA0141DC
:1014F80038E73146304607E78646E5E61846FAE615
:101508004B45A9D2B9EB020864EB0C0E0138A3E7EE
:101518004046EAE7204694E74146D1E7D0467BE7D4
:10152800023B654432E7084609E76444023842E76B
:10153800704700BF10F8012B11F8013B012A28BFA2
:101548009A42F7D0D01A7047034611F8012B03F8D6
:10155800012B002AF9D17047034613F8012B002A02
:10156800FBD1181A013870472DE9F04F144685B0A1
:101578001D464FA3D3E90023FEF796FF504B0022E8
:10158800FFF7BCF84AA3D3E9002306460F462046D6
:101598002946FEF789FF46A3D3E9002382468B46F6
:1015A800DDE90E01FEF780FF454B0022FFF7A6F8A4
:1015B8003FA3D3E9002304460D46DDE91001FEF7F9
:1015C80073FF3246804689463B4620462946FEF749
:1015D800B3FD3C4B0022FEF767FF1FF02FFCCDE95F
:1015E8000001304639461FF0E3FBCDE902012046F1
:1015F80029461FF0DDFB324B04460D4600224046CB
:101608004946FFF77BF82E4B06460F460022504608
:101618005946FFF773F802460B4630463946FEF73F
:101628008BFD284B0022FEF73FFF1FF007FC2246E8
:1016380006460F462B46DDE90201FEF735FF324626
:101648003B46FEF731FF32463B46FEF72DFFDDE90C
:10165800002304460D4610461946FEF725FF0246AC
:101668000B4620462946FEF769FD06460F461FF041
:10167800B3FA32463B4604460D4600201249FEF7AF
:101688005BFD1FF0A9FA02460B462046294600F0EA
:101698008BFC02460B46FEF751FD07A3D3E9002356
:1016A800FEF702FF05B0BDE8F08F00BFAFF3008082
:1016B800182D4454FB21094000000000AE4D58414C
:1016C800008066400000E03F0000F03F000000009E
:1016D8002DE9F04FB248B34EB34FDFF8D092AFB018
:1016E8001DF050F9B2481DF04DF900214FF480501B
:1016F8001CF090FC002130461DF044F938461DF0DE
:1017080059F9AC48AC4DDFF8B4B2DFF8B4A2494699
:101718001DF038F9AB4B002418461DF033F9E0B240
:1017280055F8048B06F0BEFD0134002814BF5A4654
:1017380052464146A4481DF025F90B2CA14BEBD18C
:10174800A24B186827F01EFD06F0F0FD8046002821
:10175800CBD00A201DF028F99D489E4E9E4F1DF0C3
:1017680029F901F089FE01469C481DF00BF9012278
:1017780000219B481DF006F9B6F9122099484FF44C
:101788007A7392FBF3F103FB112212B20A2392FB44
:10179800F3F21DF0F7F8316893481DF0F3F81CA830
:1017A80002F070FDDDE91C457BA3D3E90023204648
:1017B8002946FEF779FEFFF711F9294690FBF7F95C
:1017C80009FB17092046FFF709F94A4601468748E9
:1017D8001DF0D8F8DDE91E456FA3D3E900232046A4
:1017E8002946FEF761FEFFF7F9F8294690FBF7F264
:1017F80002FB17072046FFF7F1F83A4601467C48F6
:101808007C4F1DF0BFF8DDE92A010EAA05F056FC51
:1018180013A90EA820F08BF8189B199D764903F29E
:101828006C7A179B01330B93DDE914B4139B0D936A
:10183800002D169B0C9308BF072507F58A79386891
:10184800FFF778FE6C4948B978680444172CC8BF7C
:10185800183CB8683B2C8344C8BF3C3C0C374F4508
:10186800EDD1013DEDB23C200FF048FC062D0D9B5B
:1018780096BF624A624A52F8252062490891CDE92A
:1018880005B30B9B02930C9B5B490791CDE903A41D
:10189800CDE9002307465C4B5C4A5D4DDFF8749147
:1018A8003C211DF0A7F839465B485C4F1DF06AF8EB
:1018B800D6E902AB4FF47A72002350465946FFF737
:1018C8001FFC3C220023FFF71BFC00231446504654
:1018D8004EF660225946FFF713FC2246014650484F
:1018E8001DF050F84F481DF065F84F481DF062F89C
:1018F8000024A246337C534515D00134E4B2032BAF
:1019080006D8DFE803F002282A2C48481DF052F8D0
:10191800012C337C25D1032B0CBF454845481DF0CD
:1019280049F896F810A0032C33D943481DF042F823
:101938004FF0000B4FF4006000211CF06BFBBBF173
:10194800000FD7D10A201DF02FF83C481DF032F8BF
:101958002FB0BDE8F08F3A48D8E73A48D6E73A487A
:10196800D4E7022C08D1022B01D13848D7E70BB9AC
:101978003748D4E73748D2E7032C04D1012B0CBFF2
:1019880048463846CBE7042CCBD1002BF0D028466C
:10199800C5E7C346CEE700BF0000000080842E41A3
:1019A800CDDE0208D6DE0208DEDE0208FCDE020812
:1019B800D2DE020801DF0208F4AE0208D0EC020809
:1019C800C3DE020810DF020814DF0208A8B9020803
:1019D8001EDF0208C821002040420F0026DF02084F
:1019E8003ADF020854DF020866DF020881DF0208D6
:1019F80095DF020820AF020809D30208D8AE020812
:101A080089120308930903080FD3020815D30208A3
:101A1800CBE002089CE00208AADF0208B3E0020853
:101A2800BBDF0208DBDF0208F7DF020811E002086B
:101A38001FE0020837E00208E5E00208F7E00208C4
:101A4800AAD8020818E002083909030850E0020879
:101A580069E0020882E002082DE9F04F87B09B4652
:101A6800149BDDE9106704460D4692461BB9159B89
:101A7800002B00F0058184A3D3E9002320462946E2
:101A8800FEF712FD80A3D3E900238046894630463D
:101A98003946FEF709FD149BCDE90001002B6FD0F4
:101AA80022462B4630463946FEF746FB76A3D3E955
:101AB8000023FEF7F9FC7A4B0022FEF7F5FC1FF035
:101AC800BDF95246CDE902015B46DDE91201FEF798
:101AD80033FB6DA3D3E90023FEF7E6FC704B00222D
:101AE800FEF7E2FC1FF0AAF902460B4640464946BB
:101AF800CDE904231FF05CF906460F46DDE9000135
:101B08001FF056F9DDE9042304460D461046194630
:101B1800FEF7CAFC32463B46FEF7C6FC22462B4679
:101B2800FEF7C2FCDDE9022304460D4610461946BD
:101B3800FEF7BAFC02460B4620462946FEF7FEFA97
:101B480006460F461FF048F832463B4604460D4607
:101B580000205449FEF7F0FA1FF03EF802460B4603
:101B68002046294600F020FA49A3D3E90023FEF7CE
:101B78009BFC4D4B0022FEF797FC149BC3E9000128
:101B8800159B1BB9002007B0BDE8F08F3EA3D3E931
:101B98000023DDE91201FEF787FC3BA3D3E900230C
:101BA80004460D4650465946FEF77EFC02460B4653
:101BB80020462946FEF7C0FA04460D461FF03EF9B6
:101BC800CDE90201DDE900011FF0F2F806460F46F3
:101BD800404649461FF0ECF882468B46DDE9000195
:101BE8001FF02CF902460B4640464946CDE904232E
:101BF8001FF024F9CDE90001204629461FF0D8F846
:101C0800DDE9042304460D4650465946FEF74CFCD0
:101C1800DDE900238046894630463946FEF744FC14
:101C280022462B46FEF740FC02460B4640464946F4
:101C3800FEF782FA324604460D463B46DDE90201CC
:101C4800FEF732FC22462B4600F0AEF912A3D3E988
:101C58000023FEF729FC0022002304460D46FEF768
:101C680095FE18B9159BC3E900458BE70F4B002279
:101C780020462946FEF762FA159BC3E9000181E771
:101C88006FF015007FE700BF839952A246DF913FAE
:101C98000000000000E3C840F8C1631ADCA54C400E
:101CA8000000E03F0000F03F00408F400080764099
:101CB8002DE9F04F06468DB00F46904626F0EDFE12
:101CC8004FF47A75A0FB054005FB0105240B012F95
:101CD80044EA05544FEA153508D1CDE90045384A9C
:101CE8000821304621F059FE002013E0D8F804708E
:101CF80034483946FFF71EFC78B133483946FFF7B8
:101D080019FC50B13046314A3B46012121F045FECD
:101D18006FF004000DB0BDE8F08F2046294626A3D9
:101D2800D3E90023FFF7ECF917460B930B99284AE0
:101D380038460023FFF7E4F991469846484641465D
:101D48004EF660220023FFF7DBF993469A46584681
:101D580051464FF47A720023FFF7D2F95846CDE97D
:101D6800082351464FF47A720023FFF7C9F94EF65B
:101D78006022CDE90601002348464146FFF7C0F935
:101D8800134ACDE9040100230B993846FFF7B8F947
:101D980009A3D3E90023CDE9020120462946FFF72C
:101DA800AFF90C4ACDE900010821304621F0F5FDD4
:101DB8009AE700BFAFF30080005C26050000000032
:101DC800D1F40208E2F40208E5F40208EEF402088D
:101DD80080EE360005F502082DE9F04117461E464B
:101DE8000022234B04460D46FEF7D0FD88BB1CA3FA
:101DF800D3E9002320462946FEF7E6FD48BB2946DD
:101E08002046FEF7EBFD8046FEF7E4FA02460B4655
:101E180020462946FEF790F913A3D3E90023FEF7DD
:101E280043FB134B002204460D46FEF7AFFD80B975
:101E38000BA3D3E9002320462946FEF7C5FD40B988
:101E4800C7F8008020462946FEF7C8FD3060BDE887
:101E5800F08100233B603360F9E700BFAFF30080F7
:101E68000000C0FFFFFFDF4100000000D012634107
:101E78000000E0C10000000010B500230380042327
:101E880092B080F82030044622F035FE60601FF0E2
:101E98002DFC208102F092FF6081684602F0F2F981
:101EA8000BA3D3E90023DDE90001FEF7FDFAFEF7F5
:101EB800BDFD07A3D3E90023E060DDE90201FEF7D9
:101EC800F3FAFEF7B3FD049B2061237512B010BD31
:101ED80000000000006AF84001282DE9F84389460F
:101EE80007D022F056FE162303604FF0FF30BDE8FE
:101EF800F8838A68284B9A42F3D826F0CEFD8046AC
:101F08000F4626F0CAFD254ED9F80030D9F804202E
:101F1800A3FB063506FB0255D9F808209C1845EBAB
:101F2800E2754FEA183242EA0752A2FB06233F0B3A
:101F3800C0F30B0006FB0737A0FB06301B0BA41AE7
:101F480043EA005365EB0705E41A65F10005EFF372
:101F58001187102383F31288BFF36F8F0CA3D3E983
:101F6800002320462946FFF7CBF80D4E08A3D3E9F6
:101F78000023C6E9000120462946FFF7C1F8B260F0
:101F880087F31188BFF36F8F0020B0E7AFF30080AD
:101F980000CA9A3B00000000FFC99A3B00CA9A3B5E
:101FA800583A0020000000002DE9F84F9246994663
:101FB80023F000421F46CAF10003DFF8ECE143EAD0
:101FC8000A0342EAD373734504460D4608D84642CD
:101FD80021F00043064343EAD67676458C4608D975
:101FE80052464B4620462946FEF7A8F804460D46B9
:101FF80016E009F1404606F5801656EA0A0603D1AE
:10200800BDE8F84F00F038BCBE1706F0020646EAF5
:10201800D17653EA000117D1022E05D0032E0AD03B
:1020280020462946BDE8F88F49A3D3E900234AA1F1
:10203800D1E90001D8E746A3D3E9002348A1D1E9B3
:102048000001FEF779F8D1E752EA0A010DD1BCF197
:10205800000F3FA3D3E9002303DA43A1D1E900012C
:10206800EFE743A1D1E90001BEE7724525D19342CC
:1020780018D1022E36A3D3E900230BD0032E0DD09E
:10208800012E03D03CA1D1E90001ADE73CA1D1E983
:102098000001D6E73CA1D1E90001A5E73CA1D1E9BF
:1020A8000001CEE7022EBFD0032EC4D0012E4FF080
:1020B800000449D14FF00045B2E77345C7D09B1AD9
:1020C800B3F1747F4FEA23521ADB33A3D3E9002319
:1020D80027A1D1E90001FEF731F804460D46012E8B
:1020E80021D0022E23D0002E9AD02DA3D3E900238D
:1020F80020462946FEF720F817A3D3E90023A0E7D6
:10210800002F01DA3C320BDB4B465246204629466B
:10211800FEF7F4FA21F00043194600F0ADFBDCE7C6
:1021280000240025DBE705F100431D4678E71CA3E2
:10213800D3E9002320462946FDF7FEFF02460B4659
:1021480005A1D1E900017CE7002569E7AFF300802C
:1021580059F3F8C21F6EA501182D4454FB210940FC
:10216800182D4454FB2109C0182D4454FB21F9BFF4
:10217800182D4454FB21F93F182D4454FB21E93F05
:10218800182D4454FB21E9BFD221337F7CD902406A
:10219800D221337F7CD902C0075C143326A6913C38
:1021A800075C143326A6A13C0000F07F0000000065
:1021B8002DE9F04F1446C44A8DB021F0004B9345E9
:1021C800049107DC00220023C4E90001C4E90223CA
:1021D800002524E0BD4A934572DC049BBC4D002BCE
:1021E800ABA3D3E9002336DDFDF7A6FFAB450646D2
:1021F8000F4618D0A8A3D3E90023FDF79DFF024698
:102208000B46C4E9002330463946FDF795FFA2A3E3
:10221800D3E90023FDF790FFC4E902010125284610
:102228000DB0BDE8F08F9EA3D3E90023FDF784FF2E
:102238009DA3D3E9002306460F46FDF77DFF02461E
:102248000B46C4E9002330463946FDF775FF96A3CF
:10225800D3E90023DEE7FDF771FFAB4506460F46DD
:1022680016D08DA3D3E90023FDF768FF02460B467D
:10227800C4E9002330463946FDF75EFF86A3D3E95B
:102288000023FDF75BFF4FF0FF35C4E90201C6E705
:1022980083A3D3E90023FDF751FF83A3D3E90023E8
:1022A80006460F46FDF74AFF02460B46C4E90023DF
:1022B80030463946FDF740FF7BA3D3E90023E0E72A
:1022C800844A934500F3D58021F0004778A3D3E9E9
:1022D800002339460646FEF7E7F87F4B0022FDF754
:1022E8002DFFFEF77BFB0546FEF774F802460B460A
:1022F800CDE9022366A3D3E90023FEF7D5F8024609
:102308000B4630463946FDF717FF63A3D3E9002390
:1023180080468946DDE90201FEF7C6F802460B460B
:1023280006460F4640464946FDF706FF1F2D8446E0
:1023380025DC6A4B6A1E53F822305B451FD0624683
:102348000B46C4E90023D4E9002B40465B464946C6
:10235800FDF7F2FE32463B46FDF7EEFEC4E9020108
:102368000B46049900290246BFF659AF0BF100410C
:10237800C4E9011203F10043E3606D424FE74FEAFD
:102388002B530593C1F30A53C3EB1B5BBBF1100F2F
:10239800D5DD43A3D3E90023DDE90201FEF784F884
:1023A80006460F4602460B4640464946FDF7C4FE20
:1023B80002460B4682468B4640464946FDF7BCFE20
:1023C80032463B46FDF7B8FE37A3D3E9002306465D
:1023D8000F46DDE90201FEF767F832463B46FDF796
:1023E800ABFE02460B4606460F4650465946FDF7D9
:1023F800A3FE059AC1F30A53D31A312B06DC024611
:102408000B46C4E90023D046D9469CE72AA3D3E962
:102418000023DDE90201FEF747F806460F460246AB
:102428000B4650465946FDF787FE02460B46804646
:10243800894650465946FDF77FFE32463B46FDF732
:102448007BFE1FA3D3E9002306460F46DDE9020100
:10245800FEF72AF832463B46FDF76EFE02460B466B
:1024680006460F4640464946FDF766FEC4E90001A8
:1024780069E71B4A934535DD02460B46FDF75CFECE
:10248800C4E90201C4E90001A2E600BFAFF300807D
:1024980000004054FB21F93F3163621A61B4D03D1A
:1024A8000000601A61B4D03D7370032E8A19A33BF3
:1024B80083C8C96D305FE43F0000002E8A19A33B32
:1024C800C14920259A837B39FB21E93F7BD902400A
:1024D800FB21F93FFB2139410000E03F88C5020894
:1024E800FFFFEF7F4FEA2B55A5F21645ABEB0551E1
:1024F8000F460646FEF772FAFDF76CFF02460B46DA
:1025080030463946CDE90623FDF716FE224B002258
:10251800FDF7CAFF0F460646FEF760FAFDF75AFFB9
:1025280002460B4630463946CDE90823FDF704FE3E
:10253800194B0022FDF7B8FFCDE90A010DF1280972
:102548004FF003080026002779E8020132463B468F
:10255800C34608F1FF38FEF70FFA0028F4D10F4BF5
:102568000193022300932A465B46214606A81EF0E3
:10257800ABFC049B002B0546BFF651AED4E9002105
:1025880001F10043C4E90023D4E9022101F1004329
:10259800C4E90223F1E600BF0000704108C6020842
:1025A8002DE9F74F21F00046B6F1795FCDE9002318
:1025B80080460F46C0F2848002460B46FDF774FF42
:1025C8004D4B002204460D46FDF76EFF3EA3D3E9AE
:1025D800002382468B4620462946FDF765FF3CA32B
:1025E800D3E90023FDF7AAFD22462B46FDF75CFF41
:1025F80039A3D3E90023FDF79FFD22462B46FDF7BB
:1026080053FF37A3D3E90023FDF798FD22462B4655
:10261800FDF74AFF34A3D3E90023FDF78DFD2246D9
:102628002B46FDF741FF32A3D3E90023FDF786FDD2
:1026380022462B46FDF738FF22462B46FDF734FF8E
:10264800DDE9002304460D4640463946FDF72CFFD8
:102658000B46024629462046FDF76EFD274B9E4253
:10266800804689460EDC02460B4650465946FDF721
:1026780063FD0B46224902460020FDF75DFD03B0CD
:10268800BDE8F08F1F4B1E499E42CCBF1E4DA6F5DC
:102698000015002422462B460020FDF74DFD22465A
:1026A80006460F462B4650465946FDF745FD42461D
:1026B8004B46FDF741FD02460B4630463946DCE7FE
:1026C8000F490020DBE700BFD43888BEE9FAA8BD6F
:1026D800C4B1B4BD9EEE213EAD529C804F7E923E69
:1026E8009015CB19A001FA3E7751C1166CC1563F1F
:1026F8004C5555555555A53F0000E03F3233D33F63
:102708000000F03F0000E93F0000D23F0000000059
:102718002DE9F04786B0CDE9002321F00043B3F15D
:10272800795F0E9D82460C464EDB02460B46FDF74E
:10273800BBFE06460F4602460B4650462146FDF7AD
:10274800B3FE3DA3D3E90023804689463046394687
:10275800FDF7AAFE3AA3D3E90023FDF7EDFC3246C4
:102768003B46FDF7A1FE38A3D3E90023FDF7E6FCBD
:1027780032463B46FDF798FE35A3D3E90023FDF723
:10278800DBFC32463B46FDF78FFE33A3D3E900233B
:10279800FDF7D4FCCDE90201DDB902460B4630460F
:1027A8003946FDF781FE2EA3D3E90023FDF7C4FCCB
:1027B80042464B46FDF778FE02460B4650462146F8
:1027C800FDF7BCFC82460C465046214606B0BDE8E3
:1027D800F087DDE90001264B0022FDF765FEDDE903
:1027E8000223CDE9040140464946FDF75DFE024655
:1027F8000B46DDE90401FDF79FFC32463B46FDF739
:1028080053FEDDE90023FDF797FC17A3D3E9002366
:1028180006460F4640464946FDF746FE02460B4629
:1028280030463946FDF788FC02460B46504621469D
:10283800FDF782FCC6E700BF7CD5CF5A3AD9E53D03
:10284800EB9C2B8AE6E55A3E7DFEB157E31DC73E59
:10285800D561C119A0012A3FA6F810111111813FB5
:10286800495555555555C53F495555555555C5BFF4
:102878000000E03F00000000C14A2DE9F84F21F0B8
:102888000043934204460D468B4620DDBD4A9342E1
:1028980001DC0CD158B122462B4620462946FDF7CB
:1028A8004DFC04460D4620462946BDE8F88FBBF18D
:1028B800000F95A3D3E9002303DD95A1D1E9000119
:1028C800EDE795A1D1E90001FDF736FCE9E7AE4A4D
:1028D800934211DCA2F1DE7293420ADC90A3D3E9A1
:1028E8000023FDF72BFCA94B0022FEF76DF800280A
:1028F800D9D14FF0FF3A26E0A54A934221F000458E
:1029080000F3B880A2F55022934200F39B802B4637
:1029180002462946FDF712FC9C4B0022FDF70CFCF1
:10292800002206460F464FF0804320462946FDF711
:1029380005FC02460B4630463946FDF7DFFE4FF0F0
:10294800000A04460D4622462B4620462946FDF736
:10295800ABFD02460B4680468946FDF7A5FD72A3EE
:10296800D3E9002306460F46FDF79EFD70A3D3E981
:102978000023FDF7E3FB32463B46FDF795FD6EA3CA
:10298800D3E90023FDF7DAFB32463B46FDF78CFD21
:102998006BA3D3E90023FDF7D1FB32463B46FDF795
:1029A80083FD69A3D3E90023FDF7C8FB32463B4604
:1029B800FDF77AFD66A3D3E90023FDF7BFFB424686
:1029C8004B46FDF771FD64A3D3E900238046894691
:1029D80030463946FDF768FD61A3D3E90023FDF7CA
:1029E800ABFB32463B46FDF75FFD5FA3D3E900230F
:1029F800FDF7A2FB32463B46FDF756FD5CA3D3E943
:102A08000023FDF799FB32463B46FDF74DFD5AA3DF
:102A1800D3E90023FDF790FB32463B46FDF744FD22
:102A280002460B4640464946FDF788FB22462B46A0
:102A3800FDF73AFDBAF1FF3F02460B4644D1204666
:102A4800294641E7514B00222946FDF775FB4F4BBC
:102A580006460F46002220462946FDF76FFB024630
:102A68000B4630463946FDF749FE4FF0010A044649
:102A78000D4668E7474A93421BDA474B002229462E
:102A8800FDF75AFB444B06460F46002220462946CE
:102A9800FDF70AFD3D4B0022FDF750FB02460B46B1
:102AA80030463946FDF72AFE4FF0020A04460D4625
:102AB80049E702462B4639490020FDF71FFE4FF033
:102AC800030A04460D463EE7354B364E06EBCA066A
:102AD80003EBCA0ADAE90023FDF72EFB22462B4650
:102AE800FDF72AFB0B460246D6E90001FDF724FB59
:102AF800BBF1000FB8BF01F100430D460446B8BF53
:102B08001D46D0E6AFF30080075C143326A6913C3F
:102B1800182D4454FB21F93F182D4454FB21F9BFCB
:102B28009C7500883CE4377E11DA22E33AAD903F89
:102B3800EB0D76244B7BA93F513DD0A0660DB13FEC
:102B48006E204CC5CD45B73FFF8300922449C23F54
:102B58000D5555555555D53F2F6C6A2C44B4A2BF19
:102B68009AFDDE522DDEAD3F6D9A74AFF2B0B33FE1
:102B7800711623FEC671BC3FC4EB98999999C93F59
:102B8800FFFF0F440000F07FFFFFDB3F0000F03F36
:102B9800FFFFF23F008003400000F83F0000F0BF55
:102BA80030A8020810A80208F8B500AF09F044FFE1
:102BB800294D04462B68C8B15A0714D06E468AB00E
:102BC8006A46264B5361264BC2E906304FF4007320
:102BD8001384244B42F8103F00234FF41151284628
:102BE80008F06AFEB5462046BD46F8BD5B0715D518
:102BF8006E468AB06A461C4B53611C4B9361184B56
:102C0800D36140F201331384164B42F8103F4FF45E
:102C180014510346284608F04FFEB5462B6803F0CA
:102C28000703022B13D96D4688B06A46104B5361CF
:102C3800104B93614FF4007393830F4B42F8103F8E
:102C4800054800234FF4E65108F036FEAD46012052
:102C580005F0DEFAC7E700BF5C0C002060C7020879
:102C680088C702080400000191C70208CAC7020801
:102C7800B3C70208B9C702080300000107B500235B
:102C880001916A4603498DF8003009F009FE03B046
:102C98005DF804FB2B160208B0B5154B93F83830D5
:102CA80000AF02460BB3134942F2107009F07AFDE7
:102CB800041E17DA104803685B0713D06D468AB004
:102CC8006A460E4B53610E4BC2E906344FF400734B
:102CD80013840C4B42F8103F00234FF4115108F0B5
:102CE800EBFDAD462046BD46B0BD6FF00C04F9E7DC
:102CF8004019002057160208600C0020E4C702089B
:102D0800F1C7020804000001B0B5154B93F838303C
:102D180000AF04460BB309F013FD204609F0F8FC98
:102D28000446B8B10F4803685B0713D06D468AB0F4
:102D38006A460D4B53610D4BC2E906344FF40073DC
:102D480013840B4B42F8103F00234FF4115108F045
:102D5800B3FDAD462046BD46B0BD6FF00C04F9E7A3
:102D680040190020600C0020E4C70208FEC70208D2
:102D78000400000180B5294C00AF94F83830002BCE
:102D880045D00420FFF788FF041E254D1ADA2B686A
:102D98005A0714D06E468AB06A46224B5361224BBA
:102DA800C2E906344FF400731384204B42F8103FF5
:102DB80000234FF41151284608F07EFDB546022045
:102DC8001EF087FD1A4EDFF86C80DFF86C902B68D8
:102DD8005B0713D5EA468AB06A4640F2013313848A
:102DE800124BC2F81C90C2E9056842F8103F0C4823
:102DF80000234FF4145108F05FFDD546204609F032
:102E08009FFC00214FF400501BF004F9DFE700217C
:102E18004FF400501BF0FEF8AFE700BF4019002048
:102E2800600C0020E4C702080EC802080400000174
:102E380023C802084EC802083BC80208024628B147
:102E4800034B0448012A18BF1846704702487047C8
:102E580064C802087BC802086CC80208044B142224
:102E680002FB003054304FF4703200231AF052BA8B
:102E780000070020034B142202FB003054301AF0E4
:102E8800C1BA00BF0007002010B5044605481C233E
:102E980003FB040004301FF0DFFD2046BDE81040AE
:102EA800FFF7E8BF00070020F8B5054600AF02208D
:102EB8000C46FF2109F05CF803F0B4FC0E480368E7
:102EC80013F0060F12D06E4688B06A460B4B53615A
:102ED8000B4B93614FF4007393830A4B42F8103FF6
:102EE80000234FF4E45108F0E7FCB54600212846DA
:102EF800A047BD46F8BD00BF640C00208CC802087E
:102F080095C8020803000001F8B5054600AF022085
:102F18000C46FF2109F04EF803F062FC0F480368E5
:102F280013F0060F12D06E4688B06A460C4B5361F8
:102F38000C4B93614FF4007393830B4B42F8103F93
:102F480000234FF4E45108F0B7FCB54600212846A9
:102F5800A04705F0F1FDBD46F8BD00BF640C002098
:102F68008CC80208A5C802080300000170B51D4DF1
:102F78001D4E05F13C01281D1FF013FD044668B9DC
:102F880005F1540025F001FB0446B8B905F14801E4
:102F980005F120001FF005FD044648B133685A07C3
:102FA80004D0124A1048012120F073F8204670BD61
:102FB80005F1680025F0E9FA044620B133685B079B
:102FC800F4D00B4AEEE7012303202B7005F020F91B
:102FD800336803F00703022BE8D9064A0321304679
:102FE800E2E700BF00070020640C0020B0C8020818
:102FF800C9C80208DCC80208F0B5044685B0002339
:10300800214601200193039302901EF029FBFFF74C
:1030180043FE054612481C2303FB0400694604309E
:103028001FF0D2FCB8B90F4E0F4F029B9B070ED072
:10303800336813F0060F04D002213A46304620F0D8
:1030480028F800214FF44D701AF0E4FFEDE7284608
:10305800039BFFF759FE2046FFF70CFF05B0F0BDB4
:1030680000070020640C0020E4C802082DE9F041A4
:10307800214E336803F00703022B00AF05460C46C8
:1030880013D9E84688B06A461C4B53611C4B9361C0
:103098004FF4007393831B4B42F8103F00234FF407
:1030A800E651304608F008FCC5460C201EF072FBBD
:1030B80000201EF0F5FA1EF089FB336813F0060FA6
:1030C80013D06E4688B06A460F4B53610C4B936120
:1030D8004FF4007393830B4B42F8103F06480023CC
:1030E8004FF4E45108F0E8FBB54600212846A04714
:1030F800BD46BDE8F08100BF640C0020FCC8020892
:1031080008C90208030000010EC902082DE9F04FA2
:1031180085B0054600AF0078FFF7A0FE58B92E1D10
:103128004FF47032002330461AF0F4F8044628B100
:103138002878FFF79FFE6FF02C0477E02B7E03B30F
:10314800DFF8F880D8F8003013F0060F16D028788A
:10315800FFF774FEE9468AB06A46394BC2E9053082
:10316800384BD361384B1362384B42F8103F4FF459
:1031780022512346404608F09FFBCD466FF0770466
:103188004EE029787860F8600120B8601EF068FA8F
:10319800FFF782FD2B7881462D481C2202FB030095
:1031A800394604301FF010FC031E44DBDFF88CA006
:1031B800DFF8A0B0BB6813F003080FD0DAF80030CE
:1031C80013F0060F04D002215A4650461FF061FF43
:1031D80000214FF44D701AF01DFFEBE74846FB68DD
:1031E800FFF792FD01232B76DAF800305B0717D53D
:1031F8002878FFF723FEE9468AB06A46164B5361E2
:10320800164BC2E9063040F201331384144B42F8DE
:10321800103F0A4843464FF4145108F04DFBCD4681
:1032280030461AF0EFF82878FFF724FE20461437C6
:10323800BD46BDE8F08F1C46F2E700BF640C0020D5
:1032480019C9020829C90208000201030400000282
:1032580000070020E4C8020831C90208DAC90208D8
:103268000400000110B5044605F0CEF950B90A482B
:10327800036813F0060F0ED0084ABDE8104002217B
:103288001FF007BF2046FFF7E9FD20B92046BDE83B
:103298001040FFF7F9BD10BD640C002042C90208B8
:1032A800F8B5054600AF0D200C461EF073FA1EF067
:1032B8008DFA0020FFF7D6FF0E48036813F0060FBB
:1032C80012D06E4688B06A460B4B53610B4B936124
:1032D8004FF4007393830A4B42F8103F00234FF4D6
:1032E800E45108F0E9FAB54600212846A047BD4652
:1032F800F8BD00BF640C00209FC9020808C9020875
:10330800030000012DE9F84300AF054605F07CF9FC
:1033180058B93B48036813F0060F03D0394A022115
:103328001FF0B7FE6FF08B0464E02878FFF796FD76
:1033380058B92E1D4FF470320023304619F0EAFFB9
:10334800044628B12878FFF795FD6FF02C0451E06A
:103358002B7E03BBDFF8A880D8F8003013F0060FE7
:1033680016D02878FFF76AFDE9468AB06A46264BE8
:10337800C2E90530254BD361254B1362254B42F832
:10338800103F4FF422512346404608F095FACD46A7
:103398006FF0770428E02B781F481C2202FB0300FB
:1033A80004301FF059FB002828DBDFF854802C7606
:1033B800D8F800305B0717D52878FFF73FFDE946B6
:1033C8008AB06A46154B5361154BC2E9063040F284
:1033D80001331384134B42F8103F4FF41451234622
:1033E800404608F069FACD4630461AF00BF82878BE
:1033F800FFF740FD2046BD46BDE8F8830446F3E7E5
:10340800640C002042C9020819C90208AAC90208A6
:10341800000201030400000200070020B1C90208ED
:10342800CBC90208040000010278044B1C2101FBEF
:103438000233D88B003818BF0120704700070020DE
:103448000278044B1C2101FB0233D88BB0FA80F0C0
:10345800400970470007002008B5034A034B0821BC
:1034680020F09BFA002008BDE9C902089C730020DF
:10347800004870479C7300204FF47C331868034B56
:10348800B0F1FF3F08BF1846704700BF9973993BDA
:1034980008B50E4B00221A7001225A70FFF7ECFF94
:1034A8000B4A03460A210B481BF0A4FA042004F037
:1034B800AFFE0948036803F00703022B03D9074A44
:1034C80003211FF0E6FD002008BD00BF9A7300200D
:1034D800FCC902089C730020680C0020DCC80208A4
:1034E80038B5074D044629460648FFF7C7FB20466E
:1034F8002B68054A082120F050FA002038BD00BF8B
:10350800000000203DCA02085ACA020801481AF001
:1035180013B900BF601A00202DE9F047344BDFF8DB
:10352800D490D3E95C45344B00AFD3F8008006460D
:103538001EF0E4F914EB080445F10005241A65EBC4
:103548000105012C75F10003D9F8003032DB5A0768
:103558001BD5EA4688B0E846284BC8F81430284BF3
:10356800C8F818304FF47A72002320462946FDF730
:10357800C7FD42460423C8F81C004FF4045142F822
:10358800103F48461EF097F8D546290341EA1451E2
:1035980040F2E730240320184FF47A724FF000030A
:1035A80041F10001FDF7FCFDC6E900013046BD46CA
:1035B800BDE8F0875B0714D56C468AB06A46114BA4
:1035C80053610F4B9361104BD36140F20133138465
:1035D8000E4B42F8103F4FF4145148461EF06BF85A
:1035E800A5464FF0FF324FF0FF33C6E90023DDE771
:1035F80080190020700C0020000000207DCA0208FD
:10360800C9CE02088DCA02089DCA0208040000013A
:10361800B0B503460D480268520700AF13D56C4693
:103628008AB06A460A4D556113620A4D40F2013369
:103638009384094BC2E9065142F8103F4FF43451C4
:103648001EF039F8A546BD46B0BD00BF700C00207D
:10365800A7CA02089ECE02080500000190B583B0F3
:10366800506800AF431E13F8014F94B90A22391D60
:1036780025F0A3FD3860A0F5434050384CF2503394
:1036880098421DD91D4803685A0722D46FF01500C7
:103698001CE0303C092CE6D9184803685B07F5D0D4
:1036A8006C4688B06A46164B5361164B93614FF4CB
:1036B80000739383144B42F8103F4FF4E25119E022
:1036C8001248042239461DF0C0FF20460C37BD467B
:1036D80090BD6C468AB06A460D4B53610D4B9361A1
:1036E800084BD36140F2013313840B4B42F8103F6F
:1036F8004FF414511DF0DFFFA546C7E7700C0020FA
:10370800DFCA0208D6CA0208030000013DCA02083F
:10371800BDCA020855CE02080400000198B50F483A
:1037280003685B0700AF13D56C468AB06A460C4B3A
:1037380053610C4B93610C4BD36140F201331384FA
:103748000A4B42F8103F4FF414511DF0B4FFA54640
:10375800074819F093FEBD4698BD00BF700C0020C5
:10376800F0CA02086CCE020808CE02080400000164
:10377800D81A00202DE9F041164C94F8A060022ECA
:1037880000AF1FD194F88531E3B9134D2B685B075F
:1037980015D5D4E91801FDF721F9E8468AB06A463B
:1037A8000E4B53610E4B1662C2E90630052342F8F0
:1037B800103F4FF4245128461DF07DFFC5460123D4
:1037C80084F885311EF09AF8C4E95C01BD46BDE86D
:1037D800F08100BF80190020700C002002CB020885
:1037E80027CE020890B583B0174C00AF0423FA180F
:1037F80078600121204607F073FB30F0040203468D
:103808001BD012480268520714D06C468AB06A4628
:103818000F4951610F49C2E90613042313624FF49B
:10382800007393840C4B42F8103F4FF431511DF054
:1038380042FFA5460C37BD4690BD78680749C4F8D5
:10384800F000FFF7E5FEF5E780190020700C002076
:1038580015CB020837CB0208050000013DCB020852
:1038680098B50D4803685B0700AF0ED56C4688B065
:103878006A460A4B53610A4B9361032342F8103F8F
:103888004FF4C8511DF017FFA546064BD3F890001A
:10389800FFF7A8FFBD4698BD700C00204ACB020870
:1038A80011CE020880190020F0B589B008AF544C39
:1038B800544E0122114604F5AC7024F06DFE4823E5
:1038C8000093514905234FF48022204604F06CF8F8
:1038D800054660B13368580705D04C4A2B4601218C
:1038E80030461FF0DFFB28460437BD46F0BD0423F1
:1038F80004F1F002012120461FF009FB042862D1DF
:10390800D4F8F0004249C4F89000FFF781FED4F8DB
:10391800F030002B17DA2B463268520710D56C4668
:10392800224688B03B4961613B493648C4E90613E1
:10393800042342F8103F4FF404511DF0BCFEA54685
:103948000020FFF74FFF0BF027FF344934480022CF
:1039580025F0FBF84FF4610200233148CDE900233C
:103968001AF03AFE2F49304824F098FE2F49304883
:10397800002225F0EAF84FF4E10200232C48CDE9B3
:1039880000231AF029FE00220023CDE90623002394
:103998000522CDE90323CDE9013300932549264BC0
:1039A80026484FF480621AF071F8254919F0A2FFF1
:1039B800336803F00703022B95D9224A11480321E3
:1039C8001FF067FB8FE73368590715D06C468AB03C
:1039D80008AA1D4B53611D4BC2E90630042313622C
:1039E8004FF4007393841A4B42F8103F4FF431514F
:1039F80030461DF060FEA5466FF004038CE700BF5B
:103A080080190020700C0020009C390062CB02084D
:103A18007BCB020885CB02083BCE0208253700087D
:103A2800A01A002069380008601A0020153500081F
:103A3800281A0020007600205D3A0008181B002094
:103A4800B3CB0208DCC8020815CB0208910E0308A4
:103A5800050000012DE9F04F8FB084498448DFF854
:103A68001482DFF814B206AFFFF708F97F498048DF
:103A780004221DF0EAFD002498F80030032BFDD83D
:103A8800DFE813F0040051002001F1017B4D2B68A1
:103A980058070FD56E4688B006AA794B5361794B03
:103AA8009361032342F8103F4FF4C85128461DF094
:103AB80002FEB546744E4FF0FF324FF0FF333046EA
:103AC80019F002FD0028F6D12B68590714D56D4668
:103AD8008AB006AA6D4B53616A4B93616C4BD361F4
:103AE80040F2013313846B4B42F8103F63484FF4A4
:103AF80014511DF0E0FDAD46012388F80030664BF7
:103B08001B78002BB8D024F0C8FF4FF47A72A0FBC2
:103B18000203624D02FB0133000B40EA035000230D
:103B280028606B60A8E7554D2B685A0714D56E4678
:103B38008AB006AA5A4B5361524B9361594BD361D1
:103B480040F201331384534B42F8103F4FF41451A1
:103B580028461DF0B0FDB54620F0C9FF2B685B076D
:103B680014D56E468AB006AA4F4B5361454B9361F4
:103B78004E4BD36140F201331384464B42F8103F59
:103B88003E484FF414511DF096FDB5464FF4703081
:103B980000210BF0B1FE2B68002831D05E072BD531
:103BA8006E468AB006AA424B53614249354BDFF84C
:103BB800E490D16140F2013A9361A2F820A02F4825
:103BC80042F8109F4FF414511DF075FD2A685007F4
:103BD800B54611D58AB006AA2A4B93612B49364BB4
:103BE8005161D361A2F820A0244842F8109F4FF4F5
:103BF80014511DF060FDB546022388F800303BE7FC
:103C0800590714D56E468AB006AA294B53611D4B35
:103C180093612A4BD36140F2013313841D4B42F860
:103C2800103F16484FF414511DF045FDB54620F0DD
:103C380060FF2B685A0714D56D468AB006AA134B45
:103C48005361104B93611E4BD36140F201331384CF
:103C5800104B42F8103F09484FF414511DF02BFD4A
:103C6800AD46094819F056FC0023C6E700000020BD
:103C78003DCA0208A673002000004040700C0020D6
:103C8800BCCB0208D9CE0208D81A0020D4CB02082F
:103C9800ECCB020804000001AE730020C82100200C
:103CA80000CC020812CC02081DCC02083DCC020848
:103CB80042CC020832CC02084ECC020861CC020881
:103CC8007BCC0208A84D2B685B0714D56C468AB0DC
:103CD80006AAA64B5361A64B9361A64BD36140F24B
:103CE80001331384A44B42F8103F4FF41451284673
:103CF8001DF0E1FCA5461DF0F8FD98F80030022BF8
:103D0800044641D14FF4702200239C4E06F1600016
:103D18000BF0A0FD10F1130F3FF4AEAE74303AD1A2
:103D28002B685E0714D56E468AB006AA944B536179
:103D38008F4B93618F4BD36140F2013313848E4BC9
:103D480042F8103F88484FF414511DF0B4FCB546B2
:103D580020F0CFFE2B68580714D56D468AB006AA06
:103D6800884B5361824B9361874BD36140F2013397
:103D78001384814B42F8103F7B484FF414511DF0D7
:103D88009AFCAD46032338E707F11000FFF7C4FBA0
:103D9800D7E90423B9E71DF0A8FD2B68041B5907D0
:103DA800C6F8944014D56C468AB006AA774B53617E
:103DB8006F4B93616F4BD36140F2013313846E4BA9
:103DC80042F8103F68484FF414511DF074FCA546A2
:103DD8004FF4610200236E48CDE900231AF0FCFB82
:103DE800022386F8A030FFF7C5FC2B685A0714D5C4
:103DF8006C468AB006AA674B53615D4B9361664B6C
:103E0800D36140F2013313845B4B42F8103F5648AC
:103E18004FF414511DF04FFCA54600214FF4CD700E
:103E28001AF0F8F820F065FE2C68032314F0040457
:103E380088F800303FF420AE6C468AB006AA514B91
:103E480053614B4B9361504BD36140F20133138460
:103E5800494B42F8103F44484FF414511DF02BFCD5
:103E6800A546002408E6454D3F4E002385F8A030BE
:103E780033685B0770D5E9468AB006AA3B4B5361A5
:103E88003B4B9361454BD36140F2013313843A4B6A
:103E980042F8103F4FF4145130461DF00CFC98F8CE
:103EA8000030022BCD4657D14FF4702200233C48F6
:103EB8000BF0D0FC002840F05D813368580714D51A
:103EC800E9468AB006AA314B5361294B9361334BBB
:103ED800D36140F201331384274B42F8103F224844
:103EE8004FF414511DF0E7FBCD464FF46102002357
:103EF8002748CDE900231AF06FFB002C58D01DF09D
:103F0800F4FC041BC5F89440022385F8A030254C26
:103F18002378D3B1244B1B7893B124F0BEFD4FF422
:103F28007A76224BA0FB060206FB0122000B40EA30
:103F38000250D3E90012401A62EB4202C3E90002C0
:103F4800052004F065F9002323700024FFF712FC14
:103F58000023C5F894308FE507F11000FFF7DCFA6D
:103F6800D7E90423A3E700BF700C002091CC020816
:103F7800D9CE0208A8CC020804000001801900204C
:103F8800AECC0208D4CB0208CECC0208E6CC02089C
:103F9800A01A002000CC0208FACC020804CD0208BE
:103FA800E0190020620A0020AE730020C82100201A
:103FB80000230022C7E906232B6FFF2B00F0908017
:103FC800DFF85CA2DFF85C92DAE90023C7E9022394
:103FD800D7E9020100220023FCF7CEFC10BBD9E987
:103FE8000023C7E90023D7E9000100220023FCF7DA
:103FF800C3FCB8B9D5F884005946FDF751F888B123
:1040080007F1180305940493D5E91A23CDE902238F
:10401800D5E91823CDE90023D7E90023D7E9020120
:10402800FDF71AFDD5E91823CAE90023D5E91A23B3
:10403800D7E90601C9E90023FCF7D0FC4CF250335C
:1040480098424CD93368590713D0E9468AB006AA72
:10405800754B5361754BC2E906304FF400731384F6
:10406800734B42F8103F4FF4115172481DF023FB77
:10407800CD46D5F89000201843D46F49C5F8900074
:10408800FFF7C6FA6D49D5F89000FFF7C1FAD5F8E1
:10409800F020D5F890309B1A002B694AB8BF5B42D4
:1040A8009342336849DD5E0714D56E468AB006AA86
:1040B800644B5361644B9361644BD36140F20133A9
:1040C80013845B4B42F8103F5A484FF414511DF0CB
:1040D800F2FAB546D5F89000FFF784FB44E00446B1
:1040E80033685A07C5D5E94688B006AA584B5361C4
:1040F800584BC2E90634042342F8103F4FF40451E8
:10410800B3E733685B0714D5E9468AB006AA524B71
:104118005361524B9361524BD36140F20133138484
:10412800434B42F8103F43484FF414511DF0C3FA73
:10413800CD460023C5F89030A4E7580714D56E463D
:104148008AB006AA3F4B53613F4B9361454BD361FD
:1041580040F201331384364B42F8103F35484FF490
:1041680014511DF0A8FAB546B4F57A7F7FF7CFAEA3
:104178000323CAE610F1130F34D13368590727D542
:10418800E94688B006AA384B5361DFF8E0A0C2F8C8
:1041980018A0032342F8103F26484FF4C8511DF0D9
:1041A8008AFA33685A07CD4612D58AB006AA304B28
:1041B8002048C2E9053A2F4BD36140F201331384FA
:1041C8001B4B42F8103F4FF414511DF074FACD46C2
:1041D800294819F09FF9002388F80030032385F84F
:1041E800A030B3E674307FF4B1AE33685B077FF577
:1041F800ADAE6E468AB006AA204B53611B4B936145
:104208001F4BD36140F201331384094B42F8103F2E
:1042180008484FF414511DF04EFAB54696E600BF13
:10422800081B0020101B00200FCD02081ECD02081D
:1042380004000001700C00203FCD020862CD020886
:10424800803801006ACD020882CE020884CD0208B7
:1042580027CD0208BBCE020849CD0208ABCE020822
:1042680059CD02088ACD020890CD0208D9CE02089D
:10427800D4CB02087BCC0208D81A0020AECC0208A6
:1042880004CD020808B50349482224F0D5FE0020D1
:1042980008BD00BFE019002037B51E4C1E49002597
:1042A8000D2304F5BA70ADF80430ADF8065024F0CB
:1042B800F5F91A492A4604F1F80024F046FC25705D
:1042C80024F0EBFB4FF47A72A0FB020302FB0133EC
:1042D800000B40EA035060601148C4F8F00083689E
:1042E8009B689BB10F4A01A998470446062003F032
:1042F8008FFF0D48036803F00703022B03D90B4A0D
:1043080003211EF0C6FE204603B030BD6FF05704EF
:10431800ECE700BFE01B0020C9440008394300084F
:10432800949F020855430008740C00200DCF020822
:1043380010B5054C04F1F80024F013FC04F5BA702C
:10434800BDE8104019F0F8B9E01B0020B0B51648D8
:10435800164C036813F0040F00AF11D06D4688B0F7
:10436800A3686A46124951611249C2E90613042337
:1043780042F8103F00234FF4045107F09DFAAD4670
:10438800A368062B01D022785AB90123237300238E
:10439800A360094824F0E5FB084819F0CDF9BD46AB
:1043A800B0BD0133A360FAE7740C0020E01B0020C5
:1043B80016CF0208A1CF0208D81C0020541D0020E7
:1043C8002DE9F04F384D99B006A8FFF75BFFDDE9FE
:1043D8000834D5E90089CDE9043400220023404699
:1043E8004946FCF7C9FADDE90667304C78B1D4E9EB
:1043F800000100220023FCF7BFFA40B1DDE90423E5
:10440800C5E90067C4E900234FF0000A48E03246D6
:104418003B4640464946D4E900ABFCF7ADFA38B113
:10442800DDE9042350465946FCF7A6FA0028EBD1EB
:10443800CDE90089DDE90423CDE902AB30463946F0
:10444800FDF792F81A4B002280468946FCF7B2FA2B
:10445800174BB0F1000A4FF000024046494618BF1A
:104468004FF0010AFCF7A6FAA0B1DFF848B0DBF874
:10447800003003F00703022B09D949464046FCF7F0
:10448800ADFA0D4A0346032158461EF00BFE0B48B1
:1044980024F067FBDDE90423C5E90067C4E90023CC
:1044A800504619B0BDE8F08F681D0020701D00202F
:1044B80000001440740C00202FCF0208D81C0020E4
:1044C8002DE9F04786B002AF24F0E7FAA14CDFF8F7
:1044D80088824FF47A73A0FB035003FB01002D0B75
:1044E800636845EA0055ED1A9C4B0FCB07F1100C99
:1044F8000CE90F0023780026032B39D8DFE813F0E6
:104508000400EE00BA008600237B8BB303234FF030
:10451800000A237084F80CA0FFF752FFD8F8003087
:104528005B071BD5227807F1100303EB8202E946EB
:104538008AB052F8103C02AA894951618949C2E9F6
:10454800061340F201331384874B42F8103F534659
:1045580081484FF4145107F0AFF9CD4600220023EB
:10456800CDE9002381484FF4204200231AF034F8A3
:10457800D8F800305B0721D5E94688B00DF1080866
:104588007B4BC8F8143047F23050401B754BC8F8C5
:1045980018304FF47A724FF0000361EB0101FCF719
:1045A800AFFD42460423C8F81C0042F8103F6A4891
:1045B80000234FF4045107F07FF9CD466D4B227864
:1045C8001978914205D147F230518D4276F10001B8
:1045D80018DB1A7024F061FA4FF47A72A0FB020318
:1045E80002FB0133000B40EA0350634B60601B7809
:1045F80013B1624B22781A742278614994F88800C2
:1046080002F088F91037BD46BDE8F087237BBBB1BF
:1046180002222270D8F800200023500723739DD56A
:10462800E9468AB002AA4E4951614E4991615549FD
:10463800D16140F2013111844B4942F8101F87E7DC
:10464800FFF7BEFE03460028E2D142F210729542FF
:1046580076F100028CDBD8F80020207051077FF536
:104668007DAFE9468AB002AA3D4951613D49916151
:104678004549DDE7237BABB1D8F80020002352077A
:1046880023737FF56BAF227807F1100101EB8202EB
:10469800E9468AB052F8101C02AA3C4850613148D9
:1046A8009061C5E7FFF78CFE03460028E4D142F28B
:1046B8001072954276F10002FFF65AAF012222707D
:1046C800D8F8002050077FF549AFE9468AB002AA1A
:1046D80023495161234991612D49A9E7237B8BB176
:1046E80003222270D8F800200023510723737FF596
:1046F80035AFE9468AB002AA194951611949916151
:10470800244995E7FFF75CFE03460028E8D142F20A
:104718001072954276F10002FFF62AAFD8F8002011
:10472800207052077FF524AFE9468AB002AA0C49E7
:1047380051610C4991611449D16140F201311184F0
:10474800094942F8101F04484FF4145107F0B4F80F
:10475800CD460DE7E01B0020740C002088A4020859
:1047680051CF020895CF020804000001D81C002090
:1047780075CF0208A7730020AE730020C82100205F
:104788008ECF0208F5CE0208E9CE020866CF0208ED
:10479800F0CE0208FCCE020808B5034A08211FF033
:1047A800FCF8002008BD00BFB6CF020808B5064BCC
:1047B80008215A684FF47A73B2FBF3F3034A1FF0E7
:1047C800ECF8002008BD00BF7C070020CBCF020812
:1047D80008B5064B08211A684FF47A73B2FBF3F355
:1047E800034A1FF0DAF8002008BD00BF7C0700204C
:1047F800EDCF020808B5054B012283F84C210821AA
:10480800034B044A1FF0C9F8002008BD781D00209A
:1048180010D00208B6DF020810B5054B054A00247F
:1048280083F84C410821044B1FF0B7F8204610BD0F
:10483800781D0020B6DF020825D0020873B513469C
:1048480004460A22586801A924F0B7FC4FF47A7587
:1048580005FB00F2124B0092A2F56A42603A9A42B6
:1048680014D8104E1048042269461CF0EEFE311D83
:104878000D48FEF703FA73680C4AB3FBF5F32046BC
:1048880008211FF08AF8002002B070BD2046084BAE
:10489800084A08211FF081F86FF01500F4E700BFFF
:1048A800C0B606007C0700203BD00208CBCF020828
:1048B800C3C8020857D002087FB5134603A90446A7
:1048C8000A22586824F079FC4FF47A756843134B30
:1048D8000290A0F51C511039994214D8104E114875
:1048E800042202A91CF0B1FE31460E48FEF7C6F9B3
:1048F80033680D4AB3FBF5F3204608211FF04DF845
:10490800002004B070BD0090084B094A20460821D9
:104918001FF043F86FF01500F3E700BF905F010048
:104928007C07002077D00208EDCF0208C3C8020830
:1049380094D0020813B54FF4704204460023074888
:1049480018F0D2FF064B00932046064B064A082172
:104958001FF023F8002002B010BD00BF701E002019
:10496800CCD00208B8D00208C5D0020808B5034A5E
:1049780008211FF012F8002008BD00BFB6CF0208BA
:104988000448036813F0060F03D0034A02211EF0FF
:1049980080BB7047780C0020D0D002082DE9F04386
:1049A800364C374D83B004F1B00002AF1CF020FF45
:1049B8000026B4F96000C4F8A4601CF086FEC4F8B0
:1049C8008000B4F962001CF080FEC4F8840004F191
:1049D8007000C4F8906002F04BFB94F86931C4F899
:1049E80098302B6813F0060FC4E92A012AD0254B0A
:1049F8001A68D4F89C30022100922846224A1EF0F8
:104A08005BFB2B6813F0060F1CD0E8468CB0B4F99A
:104A180060E0B4F962C0D4F88830D4E9200102AA71
:104A2800DFF86890C2E909130723C2E9059EC2E9C5
:104A380007C042F8103F4FF462513346284606F04B
:104A48003BFFC546D4E92832002BACBF0133002315
:104A5800D4F88410C4F8A030D4F88030C4F85031A9
:104A6800C4F854110AB1C4F86021094A12780AB18D
:104A7800084A53820437BD46BDE8F083781D0020FC
:104A8800780C00207C070020DBD00208EFD0020859
:104A9800AE730020C8210020F8B500AF3E483F4D56
:104AA80023F020FD0346A8B92A68510712D06C46A6
:104AB80088B06A463A4951613A4991614FF40071A8
:104AC8009183394942F8101F4FF4E251284606F005
:104AD800F3FEA546304823F005FD0346A8B92A6829
:104AE800520712D06C4688B06A462D4951612F4949
:104AF80091614FF4007191832B4942F8101F2748A8
:104B08004FF4E25106F0D8FEA546294C294904F194
:104B1800B80023F0C3FD04F1B80018F00DFE2649D3
:104B280004F1F80023F0ECFD00262449244884F819
:104B38006661FEF7A3F823492348FEF79FF8234947
:104B48002348FEF79BF81D491D4804221CF07DFDF3
:104B580004221C491C481CF078FD1E491E48FEF71B
:104B68008DF81C491C4804221CF06FFD1B49324675
:104B780004F5B87023F0E9FF072003F049FB2B6820
:104B880003F00703022B04D9154A044803211EF039
:104B980080FA0020BD46F8BDEC9E0208780C002083
:104BA8001AD102082CD102080300000131D10208F1
:104BB800781D0020C14C0008C91602087C07002097
:104BC80077D00208800700203BD002088407002025
:104BD80036D10208880700204ED10208894900080A
:104BE800DCC80208F0B589B000AF4FF48163BB8020
:104BF80043F6FF73FB803B7A00F03F0223F03F034C
:104C0800134304461422002107F10C003B7224F0E0
:104C18003BFABB1C01207B61022300FA04F4BB6150
:104C28000C233C613B771E4DAE68391D336828461E
:104C380098470446E0B11B480368590703D1002090
:104C48002437BD46F0BD6D468AB06A46164B53619F
:104C5800164BC2E906344FF400731384144B42F820
:104C6800103F00234FF4115106F026FEAD46E6E74B
:104C7800736807F10C0128469847034660B1094854
:104C880002685207DBD06D468AB06A460649516110
:104C98000849C2E90613DEE7B7F90200D0E700BF0A
:104CA800EC9E0208780C0020E4C7020865D10208CF
:104CB8000400000177D1020810B50120FFF792FF28
:104CC800094CA4F862000020FFF78CFF04F1700182
:104CD800A4F8600001200CF01DFB18B9BDE81040D5
:104CE800FFF75CBE10BD00BF781D002037B54FF43C
:104CF8007A7444434FF4805540F2E73000214FF472
:104D08007A720023E4FB0501FCF74AFA02460B46D7
:104D180000210020CDE90001024819F05DFC03B034
:104D280030BD00BFE81E0020F7B5154606460A222A
:104D3800686801A924F041FA019B1F78044617B955
:104D48006A6893420AD16B68174A082130461EF0F8
:104D580024FE6FF01504204603B0F0BD38B10128D9
:104D68000ED0124A082130461EF017FE19E0104BEB
:104D7800104AC3F89C00082130461EF00EFEEAE7F0
:104D88000B4BC3F89C00A86824F086F90A4A03462E
:104D9800082130461EF001FEA86824F07DF9FFF7CF
:104DA800A5FF3C46D7E700BF80D10208B0D1020872
:104DB800781D002096D10208A2D10208014BD3F831
:104DC80084007047781D00202DE9F04FADB0012018
:104DD8000AAF02F041F903F0A9FD1CF0C3FCB94D7C
:104DE800A86003F011FDC5E904014FF0B043D3F802
:104DF8009420D20F85F82420D3F89420C2F380722F
:104E080085F82520D3F89420C2F3407285F826202F
:104E1800D3F89420C2F3007285F82720D3F89420A1
:104E2800C2F3806285F82920D3F89420C2F3406247
:104E380085F82A20D3F89420C2F3C06285F8282088
:104E4800D3F8942042F40002C3F894201CF084FCA8
:104E5800A8611CF07AFC04461CF08BFCC5E90740ED
:104E6800994C236813F0060F16D0AB68974A0221B5
:104E780020461EF017F9236813F0060F0CD0D5E969
:104E880004014FF47A720023FCF73AF90346904A7A
:104E9800022120461EF006F9D5E9048907F110021F
:104EA8004046494602F00AF907F110010120FDF7D2
:104EB80013F807F1200101200CF02CFA07F140014A
:104EC80007F110001CF033FD236813F0060F7ED0A5
:104ED80007F110001CF003FD03467E4A7A480221C0
:104EE8001EF0E0F8236813F0060F70D040464946DC
:104EF80007F1300202F0E2F807F1640107F130002F
:104F08001CF015FDBB6FD7F87C80DFF8CC91734996
:104F180003F26C737B607B6F01333B60D7E91AA6A1
:104F28007B6EBB60B8F1000F3B6FFB6008BF4FF0B2
:104F3800070809F58A7BD9F80000FCF7FBFA6749EE
:104F480058B9D9F804000644172EC8BF183ED9F836
:104F580008003B2E8244C8BF3C3E09F10C09D945E4
:104F6800E9D13C200CF0CAF85D4908915B490791EA
:104F7800BB680496CDE905A308F1FF387B68039365
:104F88005FFA88F8B8F1060F98BF564A3B68029353
:104F980094BF52F82820544AFB683C21CDE90023ED
:104FA800524B534A81466E4619F024FD88B00AAA2E
:104FB800504B4548C2E905394FF4007393834E4B73
:104FC80042F8103F4FF4E4511CF09DFBB54695F8AC
:104FD8002430B3B1236813F0060F12D06E4688B0A0
:104FE8000AAA464B5361464B93614FF4007393836F
:104FF800414B42F8103F34484FF4E4511CF083FB16
:10500800B54695F82530B3B1236813F0060F12D0D2
:105018006E4688B00AAA394B53613A4B93614FF4F4
:1050280000739383344B42F8103F27484FF4E45100
:105038001CF069FBB54695F82630B3B1236813F028
:10504800060F12D06E4688B00AAA2C4B53612E4B1D
:1050580093614FF400739383274B42F8103F1A482B
:105068004FF4E4511CF04FFBB54695F82730B3B127
:10507800236813F0060F12D06E4688B00AAA1F4B99
:105088005361224B93614FF4007393831A4B42F898
:10509800103F0D484FF4E4511CF035FBB54695F828
:1050A8002830002B3FD0236813F0060F3BD06E4604
:1050B80088B00AAA114B5361154B93614FF40073E2
:1050C800938327E0201F00207C0C0020DCD20208FC
:1050D8008BDA0208F6D20208F8AA020809D30208F5
:1050E80093090308DCAA0208891203080FD30208EF
:1050F80015D302083ED302080300000151D3020869
:105108005AD302085ED3020863D3020868D30208A0
:1051180071D30208854B42F8103F85484FF4E4519B
:105128001CF0F1FAB54695F82930B3B1236813F0AD
:10513800060F12D06E4688B00AAA7E4B53617E4B8A
:1051480093614FF400739383784B42F8103F78488B
:105158004FF4E4511CF0D7FAB54695F82A30B3B1AC
:10516800236813F0060F12D06E4688B00AAA714B56
:105178005361724B93614FF4007393836B4B42F806
:10518800103F6B484FF4E4511CF0BDFAB546AB69CB
:10519800132B22D8DFE803F00A2D3821434E596437
:1051A80021212121212121212121216F236813F08F
:1051B800060F12D06E4688B00AAA614B5361614B44
:1051C80093614FF400739383584B42F8103F58484B
:1051D8004FF4E4511CF097FAB546EB69042B55DC03
:1051E800002B55DB013B032B58D8DFE803F0868CF6
:1051F8009298236813F0060FEFD06E4688B00AAA7B
:105208004F4B5361504BDBE7236813F0060FE4D094
:105218006E4688B00AAA4A4B53614C4BD0E72368C4
:1052280013F0060FD9D06E4688B00AAA444B5361D2
:10523800474BC5E7236813F0060FCED06E4688B0FB
:105248000AAA3F4B5361434BBAE7236813F0060F92
:10525800C3D06E4688B00AAA394B53613E4BAFE7BC
:10526800236813F0060FB8D06E4688B00AAA344BEC
:1052780053613A4BA4E7236813F0060FADD06E468E
:1052880088B00AAA2E4B5361354B99E7FF2B0ED0F5
:10529800236813F0060F0AD0324A04E0236813F09B
:1052A800060F04D0304A224802211DF0F2FE2B6A74
:1052B80043B1226812F0060F04D02C4A1C48022180
:1052C8001DF0F0FE1CF01AFB294B2B63C5E9000109
:1052D800FEF7CEF86863082002F09AFF236803F00F
:1052E8000703022B04D9234A114803211DF0D1FEDC
:1052F80000208C37BD46BDE8F08F236813F0060FF9
:10530800D5D01D4ACFE7236813F0060FCFD01B4A2C
:10531800C9E7236813F0060FC9D0194AC3E7236801
:1053280013F0060FC3D0174ABDE700BF0300000102
:105338007C0C002051D302087DD3020882D30208D6
:1053480086D3020864C8020895D302089AD30208D3
:10535800A5D30208AED30208B8D30208C3D3020803
:10536800CCD3020821D40208D7D302082FD40208CC
:1053780043D40208DCC80208E5D30208F9D30208BE
:1053880008D4020814D40208BFF34F8F0549064B0E
:10539800CA6802F4E0621343CB60BFF34F8F00BFCB
:1053A800FDE700BF00ED00E00400FA05014818F031
:1053B80065B800BF581F002098B50E4803685B0702
:1053C80000AF13D56C468AB06A460B4B53610B4B42
:1053D80093610B4BD36140F201331384094B42F8BC
:1053E800103F4FF414511CF0F4F9A546FFF7DEFF07
:1053F800BD4698BD800C002005D5020876D9020864
:1054080054D902080400000108B502460B460348B7
:1054180018F05AF8B0FA80F0400908BD581F00206B
:1054280002460B46014817F075BF00BFE00D00208B
:10543800014817F0E7BF00BFE00D002038B54FF076
:10544800FF304FF0FF31FFF7EBFF084B1B6843B10C
:105458001D680024DB68984704441DB12B462D685D
:10546800F8E71C46FFF7E4FF204638BDC83D00209A
:105478002DE9F0410446FFF7E1FF1C4A03460821E5
:1054880020461EF08AFAFFF7D9FFB0B1184F012362
:105498003B70FFF7CDFF4FF0FF304FF0FF31FFF7C4
:1054A800BFFF144B1E685EB9FFF7C2FF124A0821FE
:1054B80020461EF072FA00233B700020BDE8F08100
:1054C8003568DFF83880FFF7B9FF20B9002DEBD039
:1054D8002E462D68F7E7B3689847FFF7AFFF4246B7
:1054E8000346082120461EF058FAECE715D50208B5
:1054F800A8730020C83D002034D5020844D502080E
:10550800F0B589B008AF2B4E2B4D01220021304653
:1055180023F042F80AF098FB0446D0B12B685B07E9
:1055280013D06E468AB008AA244B5361244BC2E9B3
:1055380006304FF400731384224B42F8103F4FF4A7
:10554800115128461CF045F9B54620460437BD469A
:10555800F0BD00220023CDE906230E23CDE9020386
:10556800CDE900000490184B184919484FF400621F
:1055780018F08CFA174918F0BDF92246164906F1B9
:10558800180023F0E2FA154A0023CDE9002306F1BA
:10559800180019F021F8012386F858302B6803F019
:1055A8000703022BD1D90E4A032128461DF071FDAD
:1055B800CBE700BF581F0020800C0020E4C702087A
:1055C8005CD5020804000001ED550008407A00206F
:1055D800B81F00206BD50208C15300080000BC3476
:1055E800DCC802082DE9F04F83B000AF4FF400503B
:1055F80000211CF0F1F84FF0FF304FF0FF31FFF7BA
:105608000FFFB24B1C68FFF713FF002CEED00920E8
:1056180002F0FEFD4FF4005000211CF0DDF80026DA
:10562800FFF70CFFAA4CE0B9052002F03BFEC0B121
:10563800236803F00703022B6CD96D4688B06A46CD
:10564800A44B5361A44B93614FF400739383A34B12
:1056580042F8103F4FF4E65120461CF0BAF8AD4628
:1056680058E0236803F00703022B07D9FFF7E6FE8B
:1056780003469B4A964803211DF014FD0AF03AFBA5
:105688004FF4703000210AF0C5FB236803F00703CC
:10569800022B054605D9934A034603218C481DF081
:1056A80001FD002D7DD0032002F0B4FF00254FF44A
:1056B800805000211CF090F802F038FE20B93C2DF3
:1056C80005F1010308DC1D460AF072FE0028EED140
:1056D80002F02CFE0028EAD04FF4805000211CF084
:1056E8007BF8236813F0060F12D06D4688B06A461F
:1056F8007D4B53617D4B93614FF400739383774BDC
:1057080042F8103F72484FF4E4511CF062F8AD467D
:105718000AF024FB4FF4805000211CF05DF80AF0D9
:1057280047FE0028F6D102F001FE0028F2D00AF068
:1057380015FB236803F00703022B12D96D4688B0C6
:105748006A466B4B53616B4B93614FF400739383C1
:10575800624B42F8103F5E484FF4E6511CF039F8AE
:10576800AD464FF0FF304FF0FF31FFF74DFE236895
:1057780003F00703022B7FF653AF6C4688B06A46E6
:105788005D4B53615B4B93614FF400739383534BB1
:1057980042F8103F4E484FF4E6511CF01AF8A5465F
:1057A8003EE7564817F0B6FE4FF0FF304FF0FF3196
:1057B800FFF736FE236803F00703022B04D9504A8B
:1057C800434803211DF065FC404B1D68002D00F087
:1057D8008C82D5F800B0DFF82C81B2464A4B1B7892
:1057E800002B49D128690121084423F0ACFB064667
:1057F80098B9236859073FD0D5E904136D468AB094
:105808006A464248D361C2E9050140F20133138474
:105818004FF4115142F8108F41E16B689847814667
:10582800002840F01F813046FBF796FED5F810900F
:105838002268814502F0070227D82AB1344A244851
:105848004B4601211DF02EFC23685A070FD5E94667
:1058580088B06A462F4B53612F4B9361032342F85C
:10586800103F1B484FF4C8511BF0B3FFCD463046DC
:1058780023F05EFBAB689847BBF1000F00F0348261
:105888005D46D146DBF800B0FEE133787B2B47D18B
:10589800331813F8013C7D2B42D1335C002B3FD1E8
:1058A800002AD1D0E94688B06A461C4B0848C2E9AC
:1058B80005364FF400739383084B42F8103F4FF4BA
:1058C800E2511BF086FFCD46BEE700BFC83D002071
:1058D800800C002075D5020886D502080300000157
:1058E80096D50208B4D50208D2D50208E3D5020835
:1058F80019D80208AFD802083AD80208581F002061
:10590800F6D5020804000001A873002012D6020888
:105918002FD6020862D602086AD902084FD60208B2
:10592800022A12D9E94688B06B696A46A149A24899
:10593800C2E905134FF400739383A04B42F8103F5C
:105948004FF4E6511BF045FFCD4623685B0712D59F
:10595800E9468AB06A469A4B53619A4B9648C2E91F
:10596800063640F2013313844FF4145142F8108F75
:105978001BF02FFFCD4630460AF01EFA814630460E
:1059880023F0D6FAB9F1000F00F03E81FFF750FD81
:105998000421781812F03CFE7D6842F20F73B5FBC3
:1059A800F3F203FB12552368580705F1010514D0DB
:1059B8006E468AB06A46844B5361844B1562C2E9CD
:1059C80006394FF400739384814B42F8103F7A48AC
:1059D8004FF431511BF0FDFEB546BAF1020F0AF142
:1059E800010640F3D780082000F080FE236813F0FA
:1059F800060F05D0774A7048334602211DF052FB46
:105A08004FF4805000211BF0E7FE0AF0D1FC00287B
:105A1800F6D102F08BFC0028F2D0042E3FF430AE11
:105A280012201BF0B7FE032002F0F4FD0AF096F9ED
:105A3800236813F0060F3FF4EDAD6C468AB06A4652
:105A4800654B5361654B9361654BD361654B13623D
:105A5800654B42F8103F58484FF422511BF0B9FEED
:105A6800A546D7E5304623F063FAB9F1000F23685D
:105A78001ADD5E077FF500AF6B696D468AB06A462E
:105A88005A4951614F49C2F82090C2E9061340F2C1
:105A9800013393844E4B42F8103F4FF4345146483B
:105AA8001BF097FEAD46E7E619F1740F13D15807BE
:105AB8007FF5E2AE6B696D468AB06A464C49516122
:105AC8004049C2E9061340F2013313844FF41451DC
